{
  "contractName": "ERC721",
  "abi": [
    {
      "anonymous": false,
      "inputs": [
        {
          "indexed": true,
          "internalType": "address",
          "name": "_owner",
          "type": "address"
        },
        {
          "indexed": true,
          "internalType": "address",
          "name": "_approved",
          "type": "address"
        },
        {
          "indexed": false,
          "internalType": "uint256",
          "name": "_tokenId",
          "type": "uint256"
        }
      ],
      "name": "Approval",
      "type": "event"
    },
    {
      "anonymous": false,
      "inputs": [
        {
          "indexed": true,
          "internalType": "address",
          "name": "_from",
          "type": "address"
        },
        {
          "indexed": true,
          "internalType": "address",
          "name": "_to",
          "type": "address"
        },
        {
          "indexed": false,
          "internalType": "uint256",
          "name": "_tokenId",
          "type": "uint256"
        }
      ],
      "name": "Transfer",
      "type": "event"
    },
    {
      "inputs": [
        {
          "internalType": "address",
          "name": "_owner",
          "type": "address"
        }
      ],
      "name": "balanceOf",
      "outputs": [
        {
          "internalType": "uint256",
          "name": "_balance",
          "type": "uint256"
        }
      ],
      "stateMutability": "view",
      "type": "function"
    },
    {
      "inputs": [
        {
          "internalType": "uint256",
          "name": "_tokenId",
          "type": "uint256"
        }
      ],
      "name": "ownerOf",
      "outputs": [
        {
          "internalType": "address",
          "name": "_owner",
          "type": "address"
        }
      ],
      "stateMutability": "view",
      "type": "function"
    },
    {
      "inputs": [
        {
          "internalType": "address",
          "name": "_to",
          "type": "address"
        },
        {
          "internalType": "uint256",
          "name": "_tokenId",
          "type": "uint256"
        }
      ],
      "name": "transfer",
      "outputs": [],
      "stateMutability": "nonpayable",
      "type": "function"
    },
    {
      "inputs": [
        {
          "internalType": "address",
          "name": "_to",
          "type": "address"
        },
        {
          "internalType": "uint256",
          "name": "_tokenId",
          "type": "uint256"
        }
      ],
      "name": "approve",
      "outputs": [],
      "stateMutability": "nonpayable",
      "type": "function"
    },
    {
      "inputs": [
        {
          "internalType": "uint256",
          "name": "_tokenId",
          "type": "uint256"
        }
      ],
      "name": "takeOwnership",
      "outputs": [],
      "stateMutability": "nonpayable",
      "type": "function"
    }
  ],
  "bytecode": "0x608060405234801561001057600080fd5b50610258806100206000396000f3fe608060405234801561001057600080fd5b5060043610610074576000357c010000000000000000000000000000000000000000000000000000000090048063095ea7b3146100795780636352211e146100c757806370a0823114610135578063a9059cbb1461018d578063b2e6ceeb146101db575b600080fd5b6100c56004803603604081101561008f57600080fd5b81019080803573ffffffffffffffffffffffffffffffffffffffff16906020019092919080359060200190929190505050610209565b005b6100f3600480360360208110156100dd57600080fd5b810190808035906020019092919050505061020d565b604051808273ffffffffffffffffffffffffffffffffffffffff1673ffffffffffffffffffffffffffffffffffffffff16815260200191505060405180910390f35b6101776004803603602081101561014b57600080fd5b81019080803573ffffffffffffffffffffffffffffffffffffffff169060200190929190505050610214565b6040518082815260200191505060405180910390f35b6101d9600480360360408110156101a357600080fd5b81019080803573ffffffffffffffffffffffffffffffffffffffff1690602001909291908035906020019092919050505061021b565b005b610207600480360360208110156101f157600080fd5b810190808035906020019092919050505061021f565b005b5050565b6000919050565b6000919050565b5050565b5056fea26469706673582212202cccc8c3ab2c663446395819de48f930958aae31b9c3ba8011e0c1bff3dddf8164736f6c63430006060033",
  "immutableReferences": {},
  "source": "pragma solidity ^0.6.6;\n\ncontract ERC721 {\n  event Transfer(address indexed _from, address indexed _to, uint256 _tokenId);\n  event Approval(address indexed _owner, address indexed _approved, uint256 _tokenId);\n\n  function balanceOf(address _owner) public virtual view returns (uint256 _balance){}\n  function ownerOf(uint256 _tokenId) public view virtual returns (address _owner){}\n  function transfer(address _to, uint256 _tokenId) public virtual {}\n  function approve(address _to, uint256 _tokenId) public virtual {}\n  function takeOwnership(uint256 _tokenId) public virtual {}\n}\n",
  "sourcePath": "/Users/senbenxun/CryptoZombies1155/contracts/ERC721.sol",
  "compiler": {
    "name": "solc",
    "version": "0.6.6+commit.6c089d02.Linux.g++"
  },
  "schemaVersion": "3.3.3",
  "updatedAt": "2021-01-19T01:33:01.887Z",
  "devdoc": {
    "methods": {}
  },
  "userdoc": {
    "methods": {}
  }
}